:100000000C94F4020C941C030C941C030C941C031D
:100010000C941C030C941C030C941C030C941C03E4
:100020000C941C030C941C030C941C030C941C03D4
:100030000C941C030C941C030C941C030C941C03C4
:100040000C9415170C941C030C9485170C945F17D3
:100050000C941C030C941C030C941C030C941C03A4
:100060000C94B7170C941C0300000000003E5B4F7B
:100070005B3E3E6B4F6B3E1C3E7C3E1C183C7E3C08
:10008000181C577D571C1C5E7F5E1C00183C180016
:10009000FFE7C3E7FF0018241800FFE7DBE7FF30A6
:1000A000483A060E2629792926407F050507407F14
:1000B00005253F5A3CE73C5A7F3E1C1C08081C1C87
:1000C0003E7F14227F22145F5F005F5F06097F017D
:1000D0007F006689956A606060606094A2FFA29468
:1000E00008047E040810207E201008082A1C080836
:1000F0001C2A08081E101010100C1E0C1E0C303884
:100100003E3830060E3E0E06000000000000005F84
:1001100000000007000700147F147F14242A7F2AA0
:100120001223130864623649562050000807030062
:10013000001C2241000041221C002A1C7F1C2A08AE
:10014000083E080800807030000808080808000011
:1001500060600020100804023E5149453E00427F85
:10016000400072494949462141494D331814127FD4
:100170001027454545393C4A494931412111090774
:100180003649494936464949291E000014000000F5
:1001900040340000000814224114141414140041C7
:1001A00022140802015909063E415D594E7C121184
:1001B000127C7F494949363E414141227F414141BC
:1001C0003E7F494949417F090909013E4141517337
:1001D0007F0808087F00417F41002040413F017FA8
:1001E000081422417F404040407F021C027F7F0470
:1001F00008107F3E4141413E7F090909063E4151B9
:10020000215E7F09192946264949493203017F01A8
:10021000033F4040403F1F2040201F3F4038403FA9
:10022000631408146303047804036159494D4300BF
:100230007F4141410204081020004141417F0402F6
:10024000010204404040404000030708002054548D
:1002500078407F284444383844444428384444286B
:100260007F385454541800087E090218A4A49C78BE
:100270007F0804047800447D40002040403D007F1A
:100280001028440000417F40007C047804787C08FA
:100290000404783844444438FC18242418182424CE
:1002A00018FC7C08040408485454542404043F44B3
:1002B000243C4040207C1C2040201C3C4030403CE2
:1002C00044281028444C9090907C4464544C440042
:1002D00008364100000077000000413608000201A6
:1002E0000204023C2623263C1EA1A161123A404092
:1002F000207A38545455592155557941225454780F
:1003000042215554784020545579400C1E527212A7
:100310003955555559395454545939555454580030
:1003200000457C410002457D420001457C407D1234
:1003300011127DF0282528F07C5455450020545496
:100340007C547C0A097F4932494949323A44444441
:100350003A324A4848303A4141217A3A424020787C
:10036000009DA0A07D3D4242423D3D4040403D3C7D
:1003700024FF2424487E4943662B2FFC2F2BFF09A2
:1003800029F620C0887E0903205454794100004496
:100390007D413048484A32384040227A007A0A0A81
:1003A000727D0D19317D2629292F282629292926F4
:1003B00030484D4020380808080808080808382F39
:1003C00010C8ACBA2F102834FA00007B00000814C3
:1003D0002A142222142A14085500550055AA55AA99
:1003E00055AAFF55FF55FF000000FF00101010FF39
:1003F00000141414FF001010FF00FF1010F010F094
:10040000141414FC001414F700FF0000FF00FF1484
:1004100014F404FC141417101F10101F101F1414D0
:10042000141F00101010F0000000001F101010101A
:100430001F10101010F010000000FF10101010100E
:1004400010101010FF10000000FF140000FF00FF4C
:1004500000001F10170000FC04F4141417101714E8
:1004600014F404F40000FF00F7141414141414140A
:10047000F700F7141414171410101F101F1414147D
:10048000F4141010F010F000001F101F0000001FE7
:1004900014000000FC140000F010F01010FF10FF1A
:1004A000141414FF141010101F00000000F010FFAF
:1004B000FFFFFFFFF0F0F0F0F0FFFFFF0000000093
:1004C00000FFFF0F0F0F0F0F3844443844FC4A4A17
:1004D0004A347E02020606027E027E0263554941CC
:1004E000633844443C04407E201E2006027E020203
:1004F00099A5E7A5991C2A492A1C4C7201724C3017
:100500004A4D4D303048784830BC625A463D3E49ED
:100510004949007E0101017E2A2A2A2A2A44445F91
:10052000444440514A444040444A51400000FF0185
:1005300003E080FF000008086B6B08361236243693
:10054000060F090F060000181800000010100030F8
:1005500040FF0101001F01011E00191D1712003C80
:100560003C3C3C00000000000901809611800A3AE2
:1005700081550A3601082A04000000F02B0400000F
:10058000014021800A13800A29800A00000000240B
:100590000027002A00000000002300260029000098
:1005A0000000080002010000030407000000000032
:1005B000000000010204081020408001020408101D
:1005C0002001020408102000000000250028002B54
:1005D00000040404040404040402020202020203EC
:1005E000030303030300D21811241FBECFEFD8E08A
:1005F000DEBFCDBF11E0A0E0B1E0E6EFFCE302C05A
:1006000005900D92A839B107D9F723E0A8E9B1E028
:1006100001C01D92A130B207E1F712E0C4EFD2E0B1
:1006200004C02197FE010E946D1CC33FD107C9F78A
:100630000E94A9190C94791E0C940000FC01538DA2
:10064000448D252F30E0842F90E0821B930B5417AC
:1006500010F0CF96089501970895FC01918D828D39
:10066000981761F0A28DAE0FBF2FB11D5D968C91D2
:10067000928D9F5F9F73928F90E008958FEF9FEF11
:100680000895FC01918D828D981731F0828DE80FCD
:10069000F11D858D90E008958FEF9FEF0895FC0187
:1006A000918D228D892F90E0805C9F4F821B910954
:1006B0008F7399270895FC01A48DA80FB92FB11D40
:1006C000A35ABF4F2C91848D90E001968F73992788
:1006D000848FA689B7892C93A089B1898C91837066
:1006E00080648C93938D848D981306C00288F3895F
:1006F000E02D80818F7D80830895EF92FF920F938C
:100700001F93CF93DF93EC0181E0888F9B8D8C8DBD
:1007100098131AC0E889F989808185FF15C09FB7B1
:10072000F894EE89FF896083E889F9898081837074
:10073000806480839FBF81E090E0DF91CF911F9123
:100740000F91FF90EF900895F62E0B8D10E00F5F44
:100750001F4F0F731127E02E8C8D8E110CC00FB61A
:1007600007FCFACFE889F989808185FFF5CFCE01B2
:100770000E945B03F1CFEB8DEC0FFD2FF11DE35ACF
:10078000FF4FF0829FB7F8940B8FEA89FB89808135
:100790008062CFCFCF93DF93EC01888D8823B9F0AF
:1007A000AA89BB89E889F9898C9185FD03C080817C
:1007B00086FD0DC00FB607FCF7CF8C9185FFF2CFF9
:1007C000808185FFEDCFCE010E945B03E9CFDF91F1
:1007D000CF91089583E192E00E944F0321E0892B9D
:1007E00009F420E0822F089580E090E0892B29F021
:1007F0000E94EA0381110C9400000895833081F077
:1008000028F4813099F08230A9F008958730A9F05A
:100810008830C9F08430B1F4809180008F7D03C0AE
:10082000809180008F7780938000089584B58F77C2
:1008300084BD089584B58F7DFBCF8091B0008F7704
:100840008093B00008958091B0008F7DF9CFCF9351
:10085000DF93282F30E0F901E156FA4F8491F90136
:10086000ED54FA4FD491F901EF52FA4FC491CC23D1
:10087000A1F081110E94FE03EC2FF0E0EE0FFF1FAC
:10088000EB56FA4FA591B491EC91ED2381E090E005
:1008900009F480E0DF91CF91089580E090E0FACFF5
:1008A000CF93DF9386E00E942704C0E0D1E09983D4
:1008B000888387E00E9427049B838A8382E00E94CA
:1008C00027049D838C8384E00E9427049F838E836A
:1008D00085E00E9427049987888783E00E94270487
:1008E0009B878A87DF91CF9108951F93CF93DF93E2
:1008F000282F30E0F901E156FA4F8491F901ED54C7
:10090000FA4FD491F901EF52FA4FC491CC23A9F0D8
:10091000162F81110E94FE03EC2FF0E0EE0FFF1F57
:10092000E953FA4FA591B4918FB7F894EC91111156
:1009300008C0D095DE23DC938FBFDF91CF911F914C
:100940000895DE2BF8CFCF93DF9390E0FC01ED54B8
:10095000FA4F24918F529A4FFC0184918823C9F059
:1009600090E0880F991FFC01E557FA4FA591B491CB
:10097000FC01E953FA4FC591D49161110DC09FB7A5
:10098000F8948C91209582238C9388812823288346
:100990009FBFDF91CF910895623051F49FB7F894D3
:1009A0003C91822F809583238C93E8812E2BEFCF6F
:1009B0008FB7F894EC912E2B2C938FBFEACF3FB7D3
:1009C000F89480910F0290911002A0911102B091C1
:1009D000120226B5A89B05C02F3F19F00196A11D54
:1009E000B11D3FBFBA2FA92F982F8827BC01CD0179
:1009F000620F711D811D911D43E0660F771F881FD7
:100A0000991F4A95D1F708958F929F92AF92BF9206
:100A1000CF92DF92EF92FF926B017C010E94DF0484
:100A20004B015C01C114D104E104F104B9F00E944E
:100A3000DF04681979098A099B09683E73408105BA
:100A4000910580F321E0C21AD108E108F10888EE8F
:100A5000880E83E0981EA11CB11CE4CFFF90EF909C
:100A6000DF90CF90BF90AF909F908F9008950895A2
:100A7000AF92BF92CF92DF92EF92FF920F931F93AC
:100A8000CF93DF936C017B018B01040F151FEB01EA
:100A90005E01AE18BF08C017D10759F06991D601A1
:100AA000ED91FC910190F081E02DC6010995892B13
:100AB00079F7C501DF91CF911F910F91FF90EF90D2
:100AC000DF90CF90BF90AF9008952091BF01260F87
:100AD0003327331F21323105ECF42091E301FC016F
:100AE00090E080E0243069F082E00895A091BF0199
:100AF0002191AC0141565E4FA40FB52FB11D2C932F
:100B00000196861798F38091BF01680F6093BF012B
:100B100080E0089581E0089508958FEF9FEF089594
:100B20008FEF9FEF08958091980190E091958195C6
:100B300091090895CF93DF93CB01EA01642F0E94BE
:100B40006505CE01DF91CF910895CF93DF931F927A
:100B5000CDB7DEB7698361E0CE0101960E946505DD
:100B600081E090E00F90DF91CF910895FC01A5A165
:100B7000B6A18C9192A589238C93A5A1B6A18C9145
:100B800091A5892B8C930895DC019396ED91FC91AE
:100B90009497908198968C91892380830895DC01A5
:100BA0009396ED91FC919497908197968C91892BD7
:100BB00080830895DC019196ED91FC91929790814C
:100BC00096968C91892380830895DC019196ED910E
:100BD000FC919297908195968C91892B80830895B2
:100BE000CF92DF92EF92FF921F93CF93DF93EC01AE
:100BF0006A017B018DA9811123C08F2D9927AA2716
:100C0000BB278EBD0DB407FEFDCFC701AA27BB27AA
:100C10008EBD0DB407FEFDCFBB27AF2D9E2D8D2DB4
:100C20008EBD0DB407FEFDCFCEBC0DB407FEFDCFCB
:100C3000DF91CF911F91FF90EF90DF90CF900895BB
:100C40008130B1F410E2CE01F7FE0FC00E94E5053D
:100C5000CE010E94CF05CE010E94C405CC0CDD1C44
:100C6000EE1CFF1C115079F7E3CF0E94DA05F0CF9C
:100C7000EF8DF8A18F2D9927AA27BB278083CE015E
:100C80000E94B605EF8DF8A1C701AA27BB27808374
:100C9000CE010E94B605EF8DF8A1BB27AF2D9E2D8A
:100CA0008D2D8083CE010E94B605EF8DF8A1C08204
:100CB000CE01DF91CF911F91FF90EF90DF90CF9009
:100CC0000C94B605FF920F931F93CF93DF93EC0123
:100CD0008B018DA981110EC01EBD0DB407FEFDCF85
:100CE0000EBD0DB407FEFDCFDF91CF911F910F9187
:100CF000FF9008958130B1F490E1F92ECE0117FFF5
:100D00000EC00E94E505CE010E94CF05CE010E94D3
:100D1000C405000F111FFA94F110F0CFE5CF0E9427
:100D2000DA05F1CFEF8DF8A11083CE010E94B60550
:100D3000EF8DF8A10083CE01DF91CF911F910F912C
:100D4000FF900C94B6050F931F93CF93DF93EC01A4
:100D5000162F8DA9811109C06EBD0DB407FEFDCF00
:100D6000DF91CF911F910F910895813099F408E0A0
:100D7000CE0117FF0CC00E94E505CE010E94CF05F1
:100D8000110FCE010E94C405015091F7E9CF0E94D6
:100D9000DA05F3CFEF8DF8A16083CE01DF91CF911B
:100DA0001F910F910C94B605CF93DF93EC01ED8D5D
:100DB000FE8D80819CA989238083CE010E94A30699
:100DC000ED8DFE8D80819BA9892B8083DF91CF9152
:100DD00008958F929F92AF92BF92CF92DF92EF923F
:100DE000FF920F931F93CF93DF93EC0189AD9AADE0
:100DF000680F791F8BAD9CAD480F591F21503109E9
:100E0000260F371F4901B12CA12CCB01B0E0A0E087
:100E1000DC0199278827882A992AAA2ABB2A6801EF
:100E200081E0C81AD108C40ED51EF12CE12C70E067
:100E300060E0BA0155274427C42AD52AE62AF72AB2
:100E40006AE2CE010E94D406B501A401CE010E943F
:100E5000F0056BE2CE010E94D406B701A601CE01D7
:100E60000E94F0056CE2CE01DF91CF911F910F91AE
:100E7000FF90EF90DF90CF90BF90AF909F908F90BA
:100E80000C94D406FC0185A9811104C091A182A112
:100E90009CBD8DBD08951F93CF93DF93EC01162F5A
:100EA000E881F9810284F385E02D0995112371F021
:100EB0006DADCE010E94D406E881F9810688F789DC
:100EC000E02DCE01DF91CF911F9109946EADF1CF4E
:100ED000AF92BF92CF92DF92EF92FF920F931F9348
:100EE000CF93DF93EC0177FD38C08885998568172B
:100EF00079079CF557FD31C08A859B8548175907AE
:100F000064F569017A015B01E881F9810284F38566
:100F1000E02DCE010995E881F98102A4F3A5E02D29
:100F200001E010E021E030E0A701B501CE01099514
:100F3000B601CE010E946206E881F9810688F78930
:100F4000E02DCE01DF91CF911F910F91FF90EF9097
:100F5000DF90CF90BF90AF900994DF91CF911F9118
:100F60000F91FF90EF90DF90CF90BF90AF900895DA
:100F70008F929F92AF92BF92CF92DF92EF92FF92A9
:100F80000F931F93CF93DF93EC0149015701E88141
:100F9000F98102A4F3A5E02D09959401D8010E94DE
:100FA0005E1C6B017C01C114D104E104F10409F45D
:100FB0007DC08DA9811115C081E0C81AD108E10852
:100FC000F1088FEFC816D806E806F80609F46EC0D7
:100FD000BEBC0DB407FEFDCFAEBC0DB407FEFDCF09
:100FE000EBCF813099F581E0C81AD108E108F1080A
:100FF0008FEFC816D806E806F80609F457C00B2D7F
:1010000018E0CE0107FF1CC00E94E505CE010E943A
:10101000CF05CE010E94C405000F115091F70A2D93
:1010200018E0CE0107FF0FC00E94E505CE010E9427
:10103000CF05CE010E94C405000F115091F7D3CF08
:101040000E94DA05E3CF0E94DA05F0CFBA1016C08D
:10105000CC0CDD1CEE1CFF1CEF8DF8A1B08281E0F2
:10106000C81AD108E108F1088FEFC816D806E806BB
:10107000F806E1F0CE010E94B605F1CF81E0C81A72
:10108000D108E108F1088FEFC816D806E806F8067F
:1010900069F0EF8DF8A1B082CE010E94B605EF8D08
:1010A000F8A1A082CE010E94B605E8CFDF91CF91D2
:1010B0001F910F91FF90EF90DF90CF90BF90AF9076
:1010C0009F908F9008958F929F92AF92BF92CF92F0
:1010D000DF92EF92FF920F931F93CF93DF934C0118
:1010E000EB016A01590137FF07C0C9010196C80F1A
:1010F000D91FB194A194B108F401A085B185CA1794
:10110000DB070CF058C017FF07C0C8010196C80ED6
:10111000D91E119501951109F40182859385C81690
:10112000D9060CF048C0FE01EA0DFB1DAF0141508D
:10113000510957FD40C0B601600F711F9B0121503E
:10114000310937FD38C0D7FF03C05F01D0E0C0E0F0
:10115000D7FE03C08B01D12CC12C4A175B071CF0B2
:101160005D01AC1ABD0A281739071CF08C010C1957
:101170001D09D401ED91FC910284F385E02DC40199
:1011800009959501A601BE01C4010E94B807D401CA
:10119000ED91FC910688F789E02DC401DF91CF9194
:1011A0001F910F91FF90EF90DF90CF90BF90AF9085
:1011B0009F908F900994DF91CF911F910F91FF9095
:1011C000EF90DF90CF90BF90AF909F908F90089559
:1011D000EF92FF920F931F932115310529F001150E
:1011E000110511F00E9463081F910F91FF90EF907D
:1011F00008958F929F92AF92BF92CF92DF92EF921B
:10120000FF920F931F93CF93DF935C014B016A0111
:10121000E90177FD52C0DC0118968D919C91681709
:1012200079070CF04AC0209709F447C037FF07C080
:10123000C9010196C80ED91ED195C195D109F501F4
:1012400082859385C816D906C4F5A6014C0F5D1F8B
:101250009A012150310937FD30C0D7FE03C0EA01A1
:10126000D12CC12C281739071CF0EC01CC19DD0951
:10127000D501ED91FC910284F385E02DC50109951E
:1012800078018E0121E030E0A601B401C5010E9481
:10129000B807D501ED91FC910688F789E02DC501CD
:1012A000DF91CF911F910F91FF90EF90DF90CF9042
:1012B000BF90AF909F908F900994DF91CF911F9135
:1012C0000F91FF90EF90DF90CF90BF90AF909F90E5
:1012D0008F9008958F929F92AF92BF92CF92DF929C
:1012E000EF92FF920F931F93CF93DF935C016B01FB
:1012F0004A01E90157FD52C0DC011A968D919C917B
:10130000481759070CF04AC0209709F447C037FF27
:1013100007C0C9010196C80ED91ED195C195D10942
:10132000F50180859185C816D906C4F5A6014C0F34
:101330005D1F9A012150310937FD30C0D7FE03C02F
:10134000EA01D12CC12C281739071CF0EC01CC196B
:10135000DD09D501ED91FC910284F385E02DC501F5
:101360000995780101E010E09E01A401B601C501D4
:101370000E94B807D501ED91FC910688F789E02D10
:10138000C501DF91CF911F910F91FF90EF90DF90FA
:10139000CF90BF90AF909F908F900994DF91CF91A5
:1013A0001F910F91FF90EF90DF90CF90BF90AF9083
:1013B0009F908F900895EF92FF920F931F93CF937A
:1013C000DF9377FD32C0DC011896ED91FC916E172A
:1013D0007F075CF52115310541F137FF07C0F901A1
:1013E00031964E0F5F1F319521953109DC011A9618
:1013F000ED91FC914E175F07C4F4EA01C20FD31FB1
:10140000DE011197B7FD11C057FF03C09E0150E0E8
:1014100040E0AE17BF071CF09F01241B350B78017D
:10142000890121E030E00E94B807DF91CF911F9140
:101430000F91FF90EF900895EF92FF920F931F93FB
:10144000CF93DF9357FD31C0DC011A96ED91FC91EB
:101450004E175F0754F52115310539F137FF07C0E5
:10146000F90131966E0F7F1F319521953109DC010D
:101470001896ED91FC916E177F07BCF4EB01C20F3B
:10148000D31FDE011197B7FD10C077FF03C09E0187
:1014900070E060E0AE17BF071CF09F01261B370B02
:1014A000780101E010E00E94B807DF91CF911F9111
:1014B0000F91FF90EF9008958F929F92AF92BF92FD
:1014C000CF92DF92EF92FF920F931F93CF93DF9310
:1014D00047012115310509F44BC00115110509F427
:1014E00047C037FF07C0F90131966E0F7F1F319556
:1014F00021953109DC011896AD90BC906A157B05E9
:10150000BCF517FF07C0F80131964E0F5F1F11950C
:1015100001951109DC011A96ED91FC914E175F07B8
:101520003CF56B01C20ED31EE6012197D7FD20C00A
:101530007A01E00EF11ED7011197B7FD19C077FFB0
:1015400003C0960170E060E057FF03C0870150E0E0
:1015500040E0CA15DB051CF09501261B370BAE17C2
:10156000BF071CF08F01041B150B74010E94B80704
:10157000DF91CF911F910F91FF90EF90DF90CF906F
:10158000BF90AF909F908F900895EF92FF920F932E
:101590001F93CF93DF93EC0177FD22C08885998557
:1015A00068177907ECF457FD1BC08A859B8548179F
:1015B0005907B4F47901E881F98102A4F3A5E02D7B
:1015C00001E010E021E030E0CE010995B701CE0145
:1015D000DF91CF911F910F91FF90EF900C946206D5
:1015E000DF91CF911F910F91FF90EF900895CF93CE
:1015F000DF93EC010E9442078FA987FD06C0EB8DA7
:10160000FC8D80819AA989238083DF91CF910895F1
:1016100008950F931F93CF93DF93EC018B010E94EA
:1016200042078FA987FD06C0EB8DFC8D80819AA9AA
:1016300089238083ED8DFE8D80819CA98923808301
:1016400066E3CE010E94A306ED8DFE8D80819BA9ED
:10165000892B80838DA9F801823091F06081CE01C1
:101660000E94A3068FA987FD06C0EB8DFC8D8081AB
:1016700099A9892B8083DF91CF911F910F910895B4
:1016800088A9882359F360817181CE010E94620686
:10169000E9CFCF93DF931F92CDB7DEB7FC0119825C
:1016A0006370668BDC01AD5BBF4F2C9130E011960F
:1016B0008C9190E0623031F06330C9F0613081F09C
:1016C00040EC498332AF21AF94AF83AFBE016F5F6F
:1016D0007F4FCF010E94090B0F90DF91CF910895AA
:1016E00040EA498334AF23AF92AF81AFEFCF40E6FA
:1016F000F8CF0F931F93CF93DF931F92CDB7DEB731
:10170000FC0119826370668BDC01A85BBF4F2D91D1
:101710003C91119712968D919C916230D1F163307A
:1017200009F440C08F010C5B1F4F6130F9F040ECB1
:101730004983AF014D5B5F4FDA014C9150E052AFEE
:1017400041AFD8014C9150E054AF43AF318720876F
:1017500093878287BE016F5F7F4FCF010E94090B85
:101760000F90DF91CF911F910F91089540EA498327
:10177000D8014C9150E052AF41AFDF01AA5BBF4F9F
:101780004C9150E054AF43AF3387228791878087D5
:10179000E1CFDF01AA5BBF4F4C9150E052AF41AFA8
:1017A0001196D0CF40E64983DF01A95BBF4F4C9132
:1017B00050E052AF41AF1497E3CFFC0187A987FDFA
:1017C00006C0A38DB48D9C9181A9892B8C9308951B
:1017D0000895FC016370668B848195812681378131
:1017E000613039F0633029F0918780873387228711
:1017F0000895318720879387828708952F923F929B
:101800004F925F926F927F928F929F92AF92BF9210
:10181000CF92DF92EF92FF920F931F93CF93DF93BC
:10182000CDB7DEB76A970FB6F894DEBF0FBECDBF57
:101830009A8F898F7A8369834A01D22E18870F8302
:101840003701BC2CDC0159962D913C915A972115FA
:10185000310509F015C118968D919C91199768175B
:1018600079070CF0D7C11A968D919C9148175907AA
:101870000CF0D0C14C2C512CB6E0CB9E600D711DEC
:1018800011247C876B87161617060CF0C3C1EA2D4E
:10189000F0E0FA87E98793E0EE0FFF1F9A95E1F7F2
:1018A000F88BEF87CF01840F951F181619060CF0DF
:1018B000B1C1A98DBA8D58968C91811104C0BFEA2F
:1018C000BD1508F4D394A98DBA8DED91FC911197B3
:1018D0000284F385E02DCD010995B5E0DB9EC001C2
:1018E0001124E981FA81FC83EB83312C212C9C01AA
:1018F00028593F4F388F2F8B4A2D50E05E8B4D8BF0
:10190000EF89F88DE20DF31D44919E828D82D12CDA
:10191000C12C69817A81620D731D7A8B698B842F4A
:1019200090E09C8B8B8BE98DFA8DA081B18140FF7B
:1019300082C0F1E0BF126FC0AF126DC01C96ED9176
:10194000FC912F813885A4014C0D5D1D69897A8930
:10195000898D9A8D0995EB89FC89F595E7954E2F30
:101960005FEFC51AD50A6D817E818D899E89680FCA
:10197000791F7E836D8398E0C916D10481F6AFEF9D
:101980002A1A3A0AEB81FC81E40DF51DFC83EB83F6
:10199000F5E02F16310409F0B3CF2F8138852615D5
:1019A0003705B9F0A98DBA8DED91FC91B1E0BB126C
:1019B00057C0AB1255C069817A816B5F7F4F008839
:1019C000F189E02D830128E030E0A401898D9A8D12
:1019D0000995A98DBA8DED91FC9111970688F7892B
:1019E000E02DCD016A960FB6F894DEBF0FBECDBFD5
:1019F000DF91CF911F910F91FF90EF90DF90CF90EB
:101A0000BF90AF909F908F907F906F905F904F901E
:101A10003F902F9009941E96ED91FC91EF80F884F1
:101A200009851A8592014D815E816B817C81898D4A
:101A30009A8D099590CF2F8138852615370509F4A1
:101A40008ACF31E0B31207C0A31205C01C96ED91F6
:101A5000FC91930178CF1E96ED91FC917301E0CF3C
:101A60006B857C85641975090684F785E02D730103
:101A70000F8518899201A401898D9A8D0995A9CFA6
:101A8000F90134969491329745915491D91AB7E05F
:101A9000DB9E400D511D1124F901259134913C8BA1
:101AA0002B8BFA0125903490FA013296749031967E
:101AB0003491398B329664903196449041E04C15C4
:101AC00018F04A1508F07FC0662D062C000C770B25
:101AD0007C836B83842D042C000C990B9E838D8357
:101AE000A98DBA8DED91FC9111970284F385E02DBB
:101AF000CD010995512CD12CC12CEA2DF0E0FA87AB
:101B0000E9872B2D30E03C872B87A401440D511D24
:101B100047FC5A95588F4F8B69817A81660D711DEC
:101B200067FC7A957E876D877989C71608F051CF53
:101B30002C2D30E04D815E81420F531FA985BA855F
:101B40004A9FC0014B9F900D5A9F900D1124FC019C
:101B5000E80DF91DF88BEF87852D612C4F89588D85
:101B6000420F531F5E8B4D8B671408F050C0442406
:101B70004394480E877041F4C1010196EB89FC89BA
:101B8000E20DF31DD4901C01D7FE19C0A98DBA8DAA
:101B9000ED91FC91662D70E0B1E0BB1219C0AB1263
:101BA00017C02D853E85620F731F0484F585E02DD7
:101BB0002F8138854D895E89898D9A8D0995DD0C37
:101BC0006394842DD1CF1E821D821C821B8288CFFC
:101BD0004B815C81640F751FAB85BC856A9FC0011A
:101BE0006B9F900D7A9F900D112469817A81680F07
:101BF000791F0684F785E02DEF80F88409851A8522
:101C00009D014F855889898D9A8D0995D8CF570C9C
:101C1000C3948ACF6A960FB6F894DEBF0FBECDBFCD
:101C2000DF91CF911F910F91FF90EF90DF90CF90B8
:101C3000BF90AF909F908F907F906F905F904F90EC
:101C40003F902F9008958F929F92AF92CF92EF92F4
:101C5000FF920F931F93CF93DF93EC01262F898D73
:101C60009A8D009709F051C06A30D1F41D861C8608
:101C70008D8948E0849F900111248E859F85820F75
:101C8000931F9F878E8781E090E0DF91CF911F9116
:101C90000F91FF90EF90CF90AF909F908F9008950D
:101CA0006D3089F3CC88AD888F898823C1F08C850D
:101CB0009D8536E0C39E800D911D11244885598570
:101CC0004817590764F44E855F851D861C8638E0E9
:101CD000A39EC0011124840F951F9F878E87EA88D9
:101CE000FB88088919894E855F856C857D85CE01C5
:101CF0000E94FE0B2C898C859D8546E0249F800DDB
:101D0000911D11249D878C87BECF6A3069F41D8692
:101D10001C86FC013896E4912D898E859F85E29F73
:101D2000800D911D1124ADCF6D3009F4ACCFFC01B5
:101D300034963491631708F4A6CF3296E491E617EF
:101D400008F4A1CFFC01329685909490462F431B56
:101D5000342F47E0349F800C911C1124F4013296FB
:101D600034913196E4913323A9F1EE2399F1CC8893
:101D7000F4013596E491AD884F89442301F10E2E8C
:101D8000000CFF0BE30FF11DCE9EA001CF9E500D66
:101D900011246C857D85460F571F688579856417EA
:101DA00075076CF44E855F851D861C86FC01389690
:101DB000E491AE9E400D511D11245F874E87EA8845
:101DC000FB88088919894E855F856C857D85CE01E4
:101DD0000E94FE0BF4013496E4912C898C859D853C
:101DE000E29F800D911D11248DCF6F927F928F9273
:101DF0009F92AF92BF92CF92DF92EF92FF920F939A
:101E00001F93CF93DF93EC016B015A013901480115
:101E1000E881F9810284F385E02D0995E881F98153
:101E20000288F389E02D87019301A501B601CE0157
:101E30000995A501480D591D41505109E881F981C5
:101E40000288F389E02D9301B601CE010995E8815E
:101E5000F9810088F189E02D9401A501B601CE0138
:101E60000995C60CD71CB60161507109E881F9814A
:101E70000088F189E02D9401A501CE010995E88142
:101E8000F9810688F789E02DCE01DF91CF911F916E
:101E90000F91FF90EF90DF90CF90BF90AF909F9009
:101EA0008F907F906F9009946F927F928F929F9204
:101EB000AF92BF92CF92DF92EF92FF920F931F9358
:101EC000CF93DF935C01EB016A014901380187017F
:101ED000DC01ED91FC916217730719F56416750624
:101EE0002CF0962D872D3A01C92ED82E9601261951
:101EF00037092F5F3F4F048CF58DE02DA301BE0104
:101F0000C5010995DF91CF911F910F91FF90EF903F
:101F1000DF90CF90BF90AF909F908F907F906F9009
:101F200008954615570591F42617370724F0892D93
:101F30004B01C22FD82F9E01281939092F5F3F4F1F
:101F4000068CF78DE02DA601B401DACF0284F3856B
:101F5000E02D0995D501ED91FC910488F589E02DDE
:101F600083019401A601BE01C5010995D501ED913A
:101F7000FC910688F789E02DC501DF91CF911F9173
:101F80000F91FF90EF90DF90CF90BF90AF909F9018
:101F90008F907F906F900994EF92FF920F931F9311
:101FA000DC011A960D911C911B9718962D913C916E
:101FB0001997ED91FC9100A0F1A1E02D7B0150E07B
:101FC00040E070E060E009951F910F91FF90EF9065
:101FD00008954F925F926F927F928F929F92AF92ED
:101FE000BF92CF92DF92EF92FF920F931F93CF9306
:101FF000DF936C012B015A0139014801DC01ED919D
:10200000FC910284F385E02D0995E201640C751CB6
:10201000D601ED91FC91C615D7055CF40088F189D5
:10202000E02D87019401A501BE01C6010995219605
:10203000EFCF0688F789E02DC601DF91CF911F9180
:102040000F91FF90EF90DF90CF90BF90AF909F9057
:102050008F907F906F905F904F9009948F929F9296
:10206000AF92BF92CF92DF92EF92FF920F931F93A6
:10207000CF93DF93EC015B014A016901E881F981AB
:102080000284F385E02D099595012C0D3D1D21500D
:102090003109E881F9810488F589E02D780184010E
:1020A000A401B501CE010995E881F9810688F78977
:1020B000E02DCE01DF91CF911F910F91FF90EF9016
:1020C000DF90CF90BF90AF909F908F9009948F92A8
:1020D0009F92AF92BF92CF92DF92EF92FF920F93B7
:1020E0001F93CF93DF93EC015B014A0169017801F3
:1020F000E881F9810284F385E02D0995C80CD91C8B
:10210000860101501109E881F9810488F589E02DE3
:102110009501A401B501CE010995E881F9810688F0
:10212000F789E02DCE01DF91CF911F910F91FF90A4
:10213000EF90DF90CF90BF90AF909F908F900994D9
:10214000EF92FF920F931F93DC01ED91FC9100A0A1
:10215000F1A1E02D09951F910F91FF90EF90089547
:102160000F931F93DC01ED91FC91068CF78DE02D10
:1021700009951F910F9108950F931F93DC01ED9125
:10218000FC91048CF58DE02D09951F910F91089518
:10219000DC01ED91FC910084F185E02D09942F92F2
:1021A0003F924F925F926F927F928F929F92AF92E7
:1021B000BF92CF92DF92EF92FF920F931F93CF9334
:1021C000DF9300D000D000D0CDB7DEB73C016A016C
:1021D0003E832D83FC82EB825801A41AB50AB7FE18
:1021E00003C0B194A194B1088D809E80861A970A8D
:1021F00097FE03C09194819491088A149B045CF02B
:10220000902F812F0D811E819D838E839C2D8D2D7E
:102210006B01692F782F0C151D055CF09D818E8157
:102220007E836D83692F782F902F812F8601C92E91
:10223000D82E1601201A310A2B012D813E81421A17
:10224000530A57FE03C0519441945108710137FE5F
:1022500003C03FEFE31AF30AF594E7948D819E8162
:10226000861797075CF5A1E0B0E0BA83A983C01692
:10227000D1064CF1D301ED91FC910484F585E02D5C
:102280002B813C81A8016D817E818A149B041CF006
:102290004D815E81B801C3010995E418F508F7FE88
:1022A0000AC02D813E8189819A81280F391F3E8382
:1022B0002D83E20CF31C0F5F1F4FD9CF2FEF3FEFA1
:1022C0003A832983D4CF26960FB6F894DEBF0FBE8B
:1022D000CDBFDF91CF911F910F91FF90EF90DF90D5
:1022E000CF90BF90AF909F908F907F906F905F90B6
:1022F0004F903F902F90089590E080E008950E94C5
:10230000551EEF92FF920F931F93CF93DF93EC0133
:102310007B018A0188819981009729F02A813B817C
:102320002417350788F4B8016F5F7F4F0E94981D0E
:10233000009791F0998388831B830A832C813D81C8
:10234000232B11F4FC0110821D830C83B7018881BB
:1023500099810E94631E0CC088819981009711F0B9
:102360000E940F1D198218821D821C821B821A82F4
:10237000CE01DF91CF911F910F91FF90EF900895C3
:10238000CF92DF92EF92FF920F931F93CF93DF9341
:10239000EC016A017B01C114D104E104F10439F4B8
:1023A000C12C48E4D42E48EEE42EFF24F394FE0121
:1023B000FF96C082D182E282F38281E28DAF80E219
:1023C0008EAF369610818FA987FD07C061E00E940D
:1023D000A30461E08FA90E94750461E088AD0E94AA
:1023E000A30461E088AD0E9475048DA9811182C0AB
:1023F00040E059E06DE370E0C416D506E606F70646
:1024000040F476956795579547958F5F8630A1F78D
:1024100087E0212F2C702065982F9695922B99A3F9
:10242000809581708AA3812F90E0B0E0A0E08BA31B
:102430009CA3ADA3BEA31FB7F8948091090281119C
:1024400027C0EBEDF5E08491EDEBF5E09491E82FFA
:10245000F0E0EE0FFF1FE557FA4FA591B491EC9114
:10246000E92321F461E08AE00E94750461E08AE0DA
:102470000E94A3048CB580618CBD8CB580648CBD3A
:1024800061E08DE00E94A30461E08BE00E94A30460
:10249000809109028F5F809309021FBF8EA987FD7B
:1024A00075C061E00E94A30461E08EA90E947504DA
:1024B00064E670E080E090E00E94040560E08EA990
:1024C0000E94750464E670E080E090E00E940405DC
:1024D00061E08EA90E94750468EC70E080E090E0F5
:1024E000DF91CF911F910F91FF90EF90DF90CF90F0
:1024F0000C94040501ED15E0F12C8130B9F461E094
:102500008AA50E94A30460E08AA50E94750461E088
:102510008CA50E94A30460E08CA50E9475048BA585
:1025200087FDBCCF60E00E94A304B8CFF80184917E
:10253000E82FF0E0EE0FFF1FE953FA4F85919491D9
:102540002F8D38A12817390741F461E08F2D0E94A3
:10255000A30460E08F2D0E947504F3940F5F1F4F5A
:10256000F4E1FF12E3CF61E08EA50E94A30461E0D5
:102570008EA50E9475048FA587FD90CF61E00E9413
:10258000A30461E08FA50E94750488CFDF91CF91ED
:102590001F910F91FF90EF90DF90CF9008951F93C0
:1025A000CF93DF9385ED8093BC0080919B01909148
:1025B0009C01A0919D01B0919E010796A11DB11DA6
:1025C00023E0B695A795979587952A95D1F7209101
:1025D000BC0024FD03C01092E30152C040919B0156
:1025E00050919C0160919D0170919E01452B462B5D
:1025F000472B69F30097A105B10541F025E12A9524
:10260000F1F700000197A109B109E1CF80919A018A
:10261000C1E0C0939901882399F1D091B80010913D
:10262000BA008091BC008A7B8093BC0060E082E1AC
:102630000E94750460E083E10E9475041092E3013A
:10264000C093E5011092E40161E082E10E9475040B
:1026500061E083E10E9475048091B9008E7F8093D0
:10266000B9008091B9008D7F8093B90080E280939A
:10267000B80085E48093BC001093BA00D093B800F2
:10268000DF91CF911F910895EF92FF920F931F93C7
:10269000E1EBF2E015870487F786E686738B628BA1
:1026A000718B608B478B248B258BFC010190002064
:1026B000E9F73197AF01481B590BBC0181EB92E060
:1026C0001F910F91FF90EF900C9438052F923F923D
:1026D0004F925F926F927F928F929F92AF92BF9232
:1026E000CF92DF92EF92FF920F931F93CF93DF93DE
:1026F000CDB7DEB7CE5BD1400FB6F894DEBF0FBECC
:10270000CDBF8FB7F89440900B0250900C026090B0
:102710000D0270900E028FBF88E390E09A83898348
:102720009E0127533F4FC155DE4F39832883CF5A2F
:10273000D14084E690E0C753DF4F99838883C95C1A
:10274000D0400E94371B2EE130E040E050E00E9474
:10275000C41B5B0103E0AA0CBB1C0A95E1F70E94B5
:10276000371B25E230E040E050E00E94C41B83E0CC
:10277000660F771F8A95E1F7AB014C5E5F4FC85437
:10278000DE4F59834883C85BD14070E060E081EB45
:1027900092E00E94CC0FEE24EA94FE2C08E010E0B8
:1027A00028E030E044E650E060E470E081EB92E045
:1027B0000E94F50EE12C28EFF22E28E030E0C854FC
:1027C000DE4F48815981C85BD140B50181EB92E071
:1027D0000E94F50EF12CE12C10E000E022E030E048
:1027E00040E06FEF7FEF88E591E00E94441300E541
:1027F00010E022E030E040E06FEF7FEF80E691E014
:102800000E944413CC24C394D12CCA54DE4F1982A5
:102810001882C65BD14088E090E0CC54DE4F9983AB
:102820008883C45BD140C654DE4F1882CA5BD14056
:1028300044E6842E912C50E4252E312CFE01319655
:10284000CF54DE4FF983E883C15BD1400E9450042E
:102850008091020190910301892B09F053C121E07D
:10286000C654DE4F2883CA5BD140CD54DE4F188258
:10287000C35BD1408091040190910501892B71F4D3
:10288000CC54DE4F19821882C45BD14048EF5FEF11
:10289000CA54DE4F59834883C65BD14080910601FC
:1028A00090910701892B71F4CC54DE4F1982188264
:1028B000C45BD14088E090E0CA54DE4F998388839E
:1028C000C65BD14080910A0190910B01892B71F474
:1028D000CA54DE4F19821882C65BD140E8E0F0E0AE
:1028E000CC54DE4FF983E883C45BD140809108016A
:1028F00090910901892B71F4CA54DE4F1982188214
:10290000C65BD14028EF3FEFCC54DE4F398328839C
:10291000C45BD1408FB7F89420910B0230910C0228
:1029200040910D0250910E02C554DE4F2883398329
:102930004A835B83CB5BD1408FBFDA01C901841925
:102940009509A609B709CC97A105B10508F424C1DA
:1029500030EF2316310428F4C40144978C3291409F
:1029600028F0CD54DE4F1882C35BD140DE011196B2
:1029700090E080E02D913D912215330579F4FC0122
:10298000EE0FFF1F29EC30E02C0F3D1FE20FF31F6D
:10299000208131812815390509F4BBC001968C15B9
:1029A0009D0541F72A143B0409F061C0C854DE4F6D
:1029B00048815981C85BD1408416950609F057C0FB
:1029C00054E6C516D1041CF48FEFC81AD80A0E9429
:1029D000371B2EE130E040E050E00E94C41B5B0159
:1029E00063E0AA0CBB1C6A95E1F70E94371B25E245
:1029F00030E040E050E00E94C41BE3E0660F771F28
:102A0000EA95E1F7FB017496C854DE4FF983E88339
:102A1000C85BD140F12CE12C04E110E020EF30E064
:102A200050E040E070E060E081EB92E00E946308DB
:102A300010E000E022E030E040E06FEF7FEF88E55B
:102A400091E00E9444134AE0BE016F567E4FC601DA
:102A500001970E948F1B00E510E022E030E040E08B
:102A60006FEF7FEFCE018F569E4F0E944413C60139
:102A70000197880F991FE9ECF0E0EC0FFD1FE80FBC
:102A8000F91F4081518121E030E02C0F3D1F820F62
:102A9000931FFC0160817181F12CE12C08E010E0B2
:102AA00028E030E081EB92E00E94F50EF601EE0F97
:102AB000FF1FA1E0B0E0AC0FBD1FAE0FBF1F29ECA0
:102AC00030E02C0F3D1F2E0F3F1F1297225031096F
:102AD000CF54DE4F48815981C15BD1404A175B0713
:102AE000F1F0CD010297FC018081918111969C93B8
:102AF0008E93C9010297FC0180819181F901918334
:102B00008083E3CF31E0CD54DE4F3883C35BD140C7
:102B1000B1CECD54DE4F1882C35BD14043CF3A8251
:102B20002982C753DF4F99828882C95CD040CC5438
:102B3000DE4F28813981C45BD140220E331ECA5436
:102B4000DE4F48815981C65BD140840E951EEE242C
:102B5000EA94FE2C08E010E028E030E0A401B10186
:102B600081EB92E00E94F50EE12C38EFF32E28E085
:102B700030E0C854DE4F48815981C85BD140B5016F
:102B800081EB92E00E94F50EC554DE4F48805980DB
:102B90006A807B80CB5BD140CD54DE4FF881C35B34
:102BA000D140F11153CEC654DE4F5881CA5BD1409B
:102BB0005111EEC060E078EF81EB92E00E94CC0F03
:102BC000F12CE12C10E000E023E030E040E06FE188
:102BD00070E082E691E00E94441394E6E92EF12C25
:102BE0000AE010E022E030E040E06FEF7FEF88E5A0
:102BF00091E00E944413CD55DE4F19821882C35ACA
:102C0000D140CB55DE4F19821882C55AD140C955E3
:102C1000DE4F19821882C75AD14050E040E06FE57C
:102C200071E0CE018D559E4F0E948111C755DE4F38
:102C300019821882C95AD140C555DE4F19821882AF
:102C4000CB5AD140C355DE4F19821882CD5AD1409C
:102C50005E018FE6A81A8EEFB80A4AE0B501C601F8
:102C600001970E948F1BF50101900020E9F7319731
:102C7000AF014A195B09B501CE0187559E4F0E94ED
:102C80008111CD55DE4F88819981C35AD14000977B
:102C900009F49AC0C755DE4F68817981C95AD1407D
:102CA0006115710509F48EC0CB55DE4F48815981FD
:102CB000C55AD140C355DE4F28813981CD5AD14004
:102CC0004217530708F47EC00E94631EC355DE4FAF
:102CD00088819981CD5AD140C955DE4F9983888327
:102CE000C75AD140C355DE4F19821882CD5AD14000
:102CF000C755DE4F88819981C95AD140009711F09C
:102D00000E940F1DC955DE4F88819981C75AD14055
:102D1000F501009799F002E010E0029710F401E04D
:102D200010E0CD55DE4F68817981C35AD140A801AA
:102D3000C5010E946A1EF501E00FF11F108284E6B2
:102D4000E82EF12C00E510E022E030E040E06FEFEB
:102D50007FEFC5010E9444130CE011E00E94500473
:102D6000E0E0F1E086E090E021913191821B930B4D
:102D70000E171F07C9F71816190684F7CD55DE4F31
:102D800088819981C35AD140009711F00E940F1D8C
:102D9000C254DE4F0FB6F894DEBF0FBECDBFDF9139
:102DA000CF911F910F91FF90EF90DF90CF90BF9048
:102DB000AF909F908F907F906F905F904F903F90DB
:102DC0002F9008950E940F1DC755DE4F888199816D
:102DD000C95AD140CD55DE4F99838883C35AD1401B
:102DE000C555DE4F88819981CB5AD140CB55DE4FF6
:102DF00099838883C55AD140C355DE4F8881998114
:102E0000CD5AD140C955DE4F99838883C75AD140E6
:102E1000C755DE4F19821882C95AD140C555DE4FB9
:102E200019821882CB5AD1405DCF1F920F920FB6F4
:102E30000F9211242F933F938F939F93AF93BF9340
:102E400080910B0290910C02A0910D02B0910E02A4
:102E500030910A0226E0230F2D3758F50296A11D66
:102E6000B11D20930A0280930B0290930C02A09351
:102E70000D02B0930E0280910F0290911002A0916A
:102E80001102B09112020196A11DB11D80930F0293
:102E900090931002A0931102B0931202BF91AF91D0
:102EA0009F918F913F912F910F900FBE0F901F9088
:102EB000189529E8230F0396A11DB11DD2CF1F92AB
:102EC0000F920FB60F9211242F933F934F935F935E
:102ED0006F937F938F939F93AF93BF93EF93FF93E2
:102EE00083E192E00E945B03FF91EF91BF91AF916C
:102EF0009F918F917F916F915F914F913F912F9112
:102F00000F900FBE0F901F9018951F920F920FB643
:102F10000F9211242F938F939F93EF93FF93E09140
:102F20002302F09124028081E0912902F0912A028B
:102F300082FD1BC0908180912C028F5F8F73209146
:102F40002D02821741F0E0912C02F0E0ED5EFD4F82
:102F5000958F80932C02FF91EF919F918F912F91EC
:102F60000F900FBE0F901F9018958081F4CF1F9285
:102F70000F920FB60F9211242F933F934F935F93AD
:102F80006F937F938F939F93AF93BF93EF93FF9331
:102F90008091B900887F803609F44AC0F0F5883204
:102FA00009F4A5C018F5803109F499C0B8F4882354
:102FB00009F4F5C0883009F492C0FF91EF91BF91F8
:102FC000AF919F918F917F916F915F914F913F91C1
:102FD0002F910F900FBE0F901F901895883109F414
:102FE00086C0803251F78093E20114C0803409F426
:102FF0009BC040F48033B9F38833F9F68093E20143
:1030000085ECAEC0803509F483C0883509F494C0DE
:10301000883499F60E94CF12D0CF883909F48AC03B
:1030200038F5883729F050F4883611F0803729F6C2
:1030300083E08093E3011092E10155C0883809F4E0
:1030400079C0803919F0803809F0B7CF8091E1015B
:10305000803208F06FC0E091E10181E08E0F809333
:10306000E1018091BB00F0E0EF53FE4F80833BC055
:10307000803B39F0D0F4803A09F477C0883A09F0FF
:103080009CCF84E08093E3011092C0011092BF01B5
:10309000F0E0E0E009958091BF0181110FC081E06F
:1030A0008093BF0110929F0109C0803C09F4A8CF12
:1030B000883C09F4A5CF883B09F07FCFE091C0019F
:1030C00081E08E0F8093C001F0E0E156FE4F8081D9
:1030D0008093BB009091C0018091BF0129C0809175
:1030E00008028093BB0085EC8093BC0066CF909172
:1030F000070280910602981758F5E091070281E0D7
:103100008E0F80930702F0E0EA51FE4F8081E9CFF5
:10311000E091070281E08E0F809307028091BB004F
:10312000F0E0EA51FE4F8083909107028091060201
:103130009817C8F285E8D8CFE091070281E08E0F9A
:10314000809307028091BB00F0E0EA51FE4F80833C
:103150008091E50181115ECF81E08093E40184EAF2
:103160008093BC001092E30128CF85EC8093BC00D3
:103170001092E3018091E101803230F4E091E101AD
:10318000F0E0EF53FE4F10826091E10170E081ECBE
:1031900091E0F0E0E0E009951092E1010ECF10928D
:1031A000E20138CFE3E1F2E01382128288EE93E08D
:1031B000A0E0B0E084839583A683B7838AE191E0A1
:1031C0009183808385EC90E09587848784EC90E000
:1031D0009787868780EC90E0918B808B81EC90E0E4
:1031E000938B828B82EC90E0958B848B86EC90E0C5
:1031F000978B868B118E128E138E148EA1EBB2E0FC
:1032000013961C921E92129720EF30E015963C9375
:103210002E93149780E491E017969C938E931697C3
:1032200019963C932E9318971B969C938E931A97FE
:1032300056961C9256971D961C921E921C971F968E
:103240001C921E921E9781E055968C93559754962A
:103250008C9354972FEF3FEF53963C932E935297B6
:1032600051963C932E93509757968C935797589618
:103270001C9258975A961C921E925997D5961C925A
:10328000D59788E0D6968C93D6978AE0D7968C937C
:10329000D79789E0D8968C93D897DA961C921E928D
:1032A000D997DC961C921E92DB97DD961C92DD97D7
:1032B000DE961C92DE971092F0021092F1021092AC
:1032C000F2021092F30280EB92E090969C938E9320
:1032D0005F97EAEDF5E0E491F0E0EE0FFF1FE953B0
:1032E000FA4F859194915E969C938E935D97ECEB4B
:1032F000F5E08491D3968C93D397EBEDF5E0E491D0
:10330000F0E0EE0FFF1FE953FA4F259134915C96E0
:103310003C932E935B97EDEBF5E0E491D196EC9323
:10332000D197E095D296EC93D297E82FE095D4967A
:10333000EC93D4971092F4021092F5021092F602D8
:103340008CE291E08D939C931092F7021092F80218
:103350000895789484B5826084BD84B5816084BD0D
:1033600085B5826085BD85B5816085BD80916E0023
:10337000816080936E001092810080918100826054
:103380008093810080918100816080938100809191
:1033900080008160809380008091B1008460809380
:1033A000B1008091B00081608093B00080917A007C
:1033B000846080937A0080917A00826080937A00A2
:1033C00080917A008E7F80937A0080917A00806865
:1033D00080937A001092C10062E082E00E94A30410
:1033E00062E084E00E94A30462E083E00E94A30400
:1033F00062E085E00E94A30462E086E00E94A304EC
:1034000062E087E00E94A3041092F60240E050E0E0
:10341000BA0181EB92E00E94C0111092F802109262
:10342000F5021092F7021092F40280EF90E0909370
:10343000FA028093F90280E491E09093FC02809379
:10344000FB02E8E6F5E01491E9E6F5E0115008F436
:1034500077C0D4917F0182E0E80EF11C319604918F
:10346000C02FCF7781EB92E00E9442078091E80263
:1034700087FD09C0E091CC02F091CD02808190914E
:10348000E30289238083E091CE02F091CF02808114
:103490009091E502892380836D2F81EB92E00E9459
:1034A000A306E091CE02F091CF0280819091E402D8
:1034B000892B8083F701B12CA12CD0E0AC16BD067E
:1034C000F4F48091E6026F01823081F48091E10290
:1034D000882361F0619171916F0181EB92E00E940C
:1034E0006206EFEFAE1ABE0AF601E8CF8FEFC81AF8
:1034F000D80A649181EB92E00E94A306F2CF8091FA
:10350000E80287FD09C0E091CC02F091CD028081F4
:103510009091E202892B8083F701EC0FFD1F07FFDA
:1035200095CFEF012196649170E06F3F710511F422
:1035300064EF71E090E080E00E940405FE0186CF18
:1035400060E081EB92E00E94790B62E081EB92E017
:103550000E94790BC0E0D0E06FEF7FEF81EB92E04B
:103560000E94CC0F8AE0E82EF12C0AE010E024E063
:1035700030E041E060EE77E08CE691E00E94441399
:1035800092E3E92EF12C24E030E040E060E078EFB7
:1035900082E791E00E94441324E6E22EF12C22E01F
:1035A00030E041E070E060E08DE791E00E9444137C
:1035B0000E9450048091000190910101892BC1F774
:1035C0000E946613209741F20E94EA03882321F2A9
:1035D0000E940000C1CF8F929F92AF92BF92CF9274
:1035E000DF92EF92FF92CF93DF93EC0168817981B4
:1035F0008A819B81611571058105910521F464E241
:1036000079ED8BE597E02DE133EF41E050E00E944A
:10361000C41B49015A019B01AC01A7EAB1E40E9415
:10362000E31B6B017C01ACEEB4EFA50194010E9499
:10363000F11BC60ED71EE81EF91EF7FE06C081E07C
:10364000C81AD108E10880E8F80AC882D982EA825B
:10365000FB82C701B6019F77DF91CF91FF90EF907A
:10366000DF90CF90BF90AF909F908F9008958F92F2
:103670009F92AF92BF92CF92DF92EF92FF926091B2
:103680000C0170910D0180910E0190910F01611557
:1036900071058105910521F464E279ED8BE597E0F0
:1036A0002DE133EF41E050E00E94C41B49015A0173
:1036B0009B01AC01A7EAB1E40E94E31B6B017C0112
:1036C000ACEEB4EFA50194010E94F11BC60ED71E0B
:1036D000E81EF91EF7FE06C081E0C81AD108E1080D
:1036E00080E8F80AC0920C01D0920D01E0920E0120
:1036F000F0920F01C701B6019F77FF90EF90DF9026
:10370000CF90BF90AF909F908F90089560930C01E1
:1037100070930D0180930E0190930F010895BB27C4
:103720004A3031F4992322F4BDE2909581959F4F60
:103730000C949B1BBB27FB015527AA27880F991FB9
:10374000AA1FA41710F0A41B83955051B9F7A05DD0
:10375000AA3308F0A95DA193009779F7B111B1934D
:103760001192CB010C94B41BDC01FC01672F719109
:103770007723E1F7329704C07C916D937083629157
:10378000AE17BF07C8F30895052E97FB1EF40094EB
:103790000E94DB1B57FD07D00E942D1C07FC03D0A5
:1037A0004EF40C94DB1B50954095309521953F4F7E
:1037B0004F4F5F4F089590958095709561957F4F1D
:1037C0008F4F9F4F08950E944F1CA59F900DB49F4F
:1037D000900DA49F800D911D11240895B7FF0C94A6
:1037E000E31B0E94E31B821B930B08952F923F92D1
:1037F0004F925F926F927F928F929F92AF92BF9201
:10380000CF92DF92EF92FF920F931F93CF93DF93AC
:10381000CDB7DEB7CA1BDB0B0FB6F894DEBF0FBE09
:10382000CDBF09942A88398848885F846E847D8456
:103830008C849B84AA84B984C884DF80EE80FD8058
:103840000C811B81AA81B981CE0FD11D0FB6F894CE
:10385000DEBF0FBECDBFED010895A1E21A2EAA1B57
:10386000BB1BFD010DC0AA1FBB1FEE1FFF1FA21730
:10387000B307E407F50720F0A21BB30BE40BF50B2D
:10388000661F771F881F991F1A9469F760957095B6
:10389000809590959B01AC01BD01CF010895A29F39
:1038A000B001B39FC001A39F700D811D1124911D14
:1038B000B29F700D811D1124911D08950E944F1C0F
:1038C000332312F48A1B9B0B0C94681C0E944F1C20
:1038D000B7FF0895821B930B0895EE0FFF1F05900D
:1038E000F491E02D09940F931F93CF93DF938230CF
:1038F000910510F482E090E0E091FF02F091000366
:1039000030E020E0B0E0A0E0309799F421153105D7
:1039100009F44AC0281B390B24303105D8F58A81B7
:103920009B816115710589F1FB0193838283FE01FF
:1039300011C0408151810281138148175907E0F07D
:103940004817590799F4109761F012960C93129743
:1039500013961C933296CF01DF91CF911F910F9157
:1039600008950093FF0210930003F4CF2115310551
:1039700051F04217530738F0A901DB019A01BD014C
:10398000DF01F801C1CFEF01F9CF909300038093DD
:10399000FF02CDCFFE01E20FF31F819391932250DE
:1039A000310939832883D7CF2091FD023091FE025F
:1039B000232B41F420911201309113013093FE0228
:1039C0002093FD0220911001309111012115310544
:1039D00041F42DB73EB74091140150911501241BBD
:1039E000350BE091FD02F091FE02E217F307A0F41F
:1039F0002E1B3F0B2817390778F0AC014E5F5F4F45
:103A00002417350748F04E0F5F1F5093FE02409376
:103A1000FD02819391939FCFF0E0E0E09CCFCF93A4
:103A2000DF930097E9F0FC01329713821282A09194
:103A3000FF02B0910003ED0130E020E01097A1F407
:103A400020813181820F931F2091FD023091FE026F
:103A50002817390709F061C0F093FE02E093FD02D8
:103A6000DF91CF910895EA01CE17DF07E8F54A818B
:103A70005B819E0141155105B1F7E901FB83EA83A2
:103A800049915991C40FD51FEC17FD0761F480814E
:103A900091810296840F951FE90199838883828121
:103AA00093819B838A83F0E0E0E012968D919C9154
:103AB00013970097B9F52D913C911197CD0102967E
:103AC000820F931F2091FD023091FE0228173907C3
:103AD00039F6309751F5109200031092FF02B0931F
:103AE000FE02A093FD02BCCFD383C28340815181EB
:103AF000840F951FC817D90761F44E5F5F4F888107
:103B00009981480F591F518340838A819B819383F8
:103B100082832115310509F0B0CFF0930003E093C3
:103B2000FF029ECFFD01DC01C0CF13821282D7CFEE
:103B3000B0E0A0E0EEE9FDE10C94F81B8C010097E9
:103B400051F4CB010E94731C8C01C801CDB7DEB7C4
:103B5000E0E10C94141CFC01E60FF71F9C012250BD
:103B60003109E217F30708F49DC0D901CD91DC912A
:103B70001197C617D70798F0C530D10530F3CE019D
:103B800004978617970708F3C61BD70B2297C19394
:103B9000D1936D937C93CF010E940F1DD6CF5B0113
:103BA000AC1ABD0A4C018C0E9D1EA091FF02B09173
:103BB0000003512C412CF12CE12C109731F5809110
:103BC000FD029091FE028815990509F05CC0461629
:103BD000570608F058C0809110019091110100978C
:103BE00041F48DB79EB74091140150911501841B8B
:103BF000950BE817F90708F055C0F093FE02E09323
:103C0000FD02F90171836083A0CF8D919C91119782
:103C100012966C90129713967C901397A815B9057D
:103C200059F56C0142E0C40ED11CCA14DB0420F12A
:103C3000AC014A195B09DA011296159780F062828D
:103C4000738251834083D9016D937C93E114F10415
:103C500071F0D7011396FC93EE93129776CF2296CC
:103C60008C0F9D1FF90191838083F301EFCFF093B7
:103C70000003E093FF0269CF4816590608F42C01AF
:103C80007D01D3019ACFCB010E94731C7C01009768
:103C900049F0AE01B8010E945A1EC8010E940F1DD2
:103CA000870153CF10E000E050CF81E090E0F8941E
:103CB0000C94791EFB01DC0102C001900D92415071
:103CC0005040D8F70895FB01DC0101900D920020CF
:103CD000E1F70895FB01DC014150504048F00190AC
:103CE0000D920020C9F701C01D9241505040E0F7ED
:063CF0000895F894FFCFD7
:103CF60001000100010001000100010001000000B7
:103D0600000001038000000000007D0338051E034B
:103D1600CA034F032D03410300000000230E38059C
:103D26007C1137056807F70AC50A5C0ADB091C0A15
:103D3600CF10DD0B790B4B07F9086A09E808CC0FA1
:103D4600540FF50EC011E90653636F72653A2000F1
:103D5600300047616D65204F766572004D65727261
:103D660079004368726973746D61732100507265DE
:103D7600737320737461727420746F20706C617930
:083D860020736E616B65000003
:00000001FF
